:100000000C942A000C9447000C9447000C94470071
:100010000C9447000C9447000C9447000C94470044
:100020000C9447000C9447000C9447000C94470034
:100030000C9447000C9447000C9447000C94470024
:100040000C9447000C9447000C9447000C94470014
:100050000C94470011241FBECFE5D8E0DEBFCDBF12
:1000600010E0A0E6B0E0ECEDF6E002C005900D92E5
:10007000A036B107D9F710E0A0E6B0E001C01D92AC
:10008000A036B107E1F70E9449000C946C030C9470
:10009000000082E062E041E00E946D0082E067E0E3
:1000A00041E00E946D0083E062E041E00E946D004B
:1000B000AA9A8FEF93EDA0E381509040A040E1F722
:1000C00000C00000AA988FEF93EDA0E3815090400C
:1000D000A040E1F700C00000EBCF843008F08BC0F7
:1000E000683008F08AC0423008F089C0813041F1A0
:1000F000813038F0823009F441C0833009F081C08A
:100100005BC0413071F42AB381E090E0AC0102C0E1
:10011000440F551F6A95E2F7BA01622B6ABB80E073
:1001200008952AB381E090E0AC0102C0440F551F4E
:100130006A95E2F7BA01609562236ABB80E0089590
:10014000413069F447B321E030E0C90102C0880FB3
:10015000991F6A95E2F7842B87BB80E0089527B347
:1001600081E090E0AC0102C0440F551F6A95E2F7B0
:10017000BA016095622367BB80E00895413069F45D
:1001800044B321E030E0C90102C0880F991F6A958D
:10019000E2F7842B84BB80E0089524B381E090E0F3
:1001A000AC0102C0440F551F6A95E2F7BA01609591
:1001B000622364BB80E00895413071F421B381E093
:1001C00090E0AC0102C0440F551F6A95E2F7BA01F6
:1001D000622B61BB80E0089521B381E090E0AC0127
:1001E00002C0440F551F6A95E2F7BA016095622379
:1001F00061BB80E0089581E0089581E0089581E089
:10020000089580E00895843008F08BC0683008F0CD
:100210008AC0423008F089C0813041F1813038F025
:10022000823009F441C0833009F081C05BC04130A5
:1002300071F42BB381E090E0AC0102C0440F551F74
:100240006A95E2F7BA01622B6BBB80E008952BB38D
:1002500081E090E0AC0102C0440F551F6A95E2F7BF
:10026000BA01609562236BBB80E00895413069F468
:1002700048B321E030E0C90102C0880F991F6A9598
:10028000E2F7842B88BB80E0089528B381E090E0FA
:10029000AC0102C0440F551F6A95E2F7BA016095A0
:1002A000622368BB80E00895413069F445B321E0E2
:1002B00030E0C90102C0880F991F6A95E2F7842BCC
:1002C00085BB80E0089525B381E090E0AC0102C0D9
:1002D000440F551F6A95E2F7BA016095622365BB2A
:1002E00080E00895413071F422B381E090E0AC01E8
:1002F00002C0440F551F6A95E2F7BA01622B62BB38
:1003000080E0089522B381E090E0AC0102C0440F88
:10031000551F6A95E2F7BA016095622362BB80E0DF
:10032000089581E0089581E0089581E0089580E0D6
:100330000895843008F045C0683008F044C081302A
:10034000B1F0813030F0823001F1833009F03DC0EE
:100350002AC02BB381E090E0AC0102C0440F551FCE
:100360006A95E2F7BA0162276BBB80E0089528B373
:1003700081E090E0AC0102C0440F551F6A95E2F79E
:10038000BA01622768BB80E0089525B381E090E060
:10039000AC0102C0440F551F6A95E2F7BA0162270B
:1003A00065BB80E0089522B381E090E0AC0102C01B
:1003B000440F551F6A95E2F7BA01622762BB80E0DD
:1003C000089581E0089581E0089580E008958430E3
:1003D00008F049C0683008F048C04115510509F4DB
:1003E00046C08130B1F0813030F0823001F183308D
:1003F00009F03FC02AC089B390E09C0102C0359546
:1004000027956A95E2F7B9016170FA01608380E08F
:10041000089586B390E09C0102C0359527956A95B2
:10042000E2F7B9016170FA01608380E0089583B357
:1004300090E09C0102C0359527956A95E2F7B901D5
:100440006170FA01608380E0089580B390E09C01C0
:1004500002C0359527956A95E2F7B9016170FA01F6
:10046000608380E0089581E0089581E0089581E04F
:10047000089580E00895843008F045C0683008F0A1
:1004800044C08130B1F0813030F0823001F18330EE
:1004900009F03DC02AC02BB381E090E0AC0102C05E
:1004A000440F551F6A95E2F7BA01622B6BBB80E0DF
:1004B000089528B381E090E0AC0102C0440F551FBD
:1004C0006A95E2F7BA01622B68BB80E0089525B314
:1004D00081E090E0AC0102C0440F551F6A95E2F73D
:1004E000BA01622B65BB80E0089522B381E090E001
:1004F000AC0102C0440F551F6A95E2F7BA01622BA6
:1005000062BB80E0089581E0089581E0089580E075
:1005100008958430A8F5813091F0813028F0823040
:10052000C9F0833079F521C06F3F29F48AB38FEF8A
:100530008ABB80E008958AB31ABA80E008956F3FBD
:1005400029F487B38FEF87BB80E0089587B317BA8C
:1005500080E008956F3F29F484B38FEF84BB80E07F
:10056000089584B314BA80E008956F3F29F481B3ED
:100570008FEF81BB80E0089581B311BA80E00895C8
:1005800081E0089580E008958430A8F4813051F02E
:10059000813028F0823049F0833079F409C06BBB98
:1005A00080E0089568BB80E0089565BB80E0089511
:1005B00062BB80E0089581E0089580E00895843072
:1005C00000F561157105F9F0813061F0813028F096
:1005D000823069F08330C9F40FC08BB3FB01808394
:1005E00080E0089588B3FB01808380E0089585B39F
:1005F000FB01808380E0089582B3FB01808380E06B
:10060000089581E0089581E0089580E008958430A0
:10061000E8F4813061F0813028F0823069F0833075
:10062000B9F40FC08BB380958BBB80E0089588B37D
:10063000809588BB80E0089585B3809585BB80E078
:10064000089582B3809582BB80E0089581E008958B
:1006500080E008958430E8F4813061F0813028F042
:10066000823069F08330B9F40FC08BB38FEF8BBB4E
:1006700080E0089588B38FEF88BB80E0089585B34C
:100680008FEF85BB80E0089582B38FEF82BB80E05F
:10069000089581E0089580E00895843028F468305A
:1006A00018F441E00E946D000895843028F4683009
:1006B00018F441E00E9403010895843028F4683062
:1006C00018F440E00E9403010895843020F468305B
:0C06D00010F40E9499010895F894FFCFE7
:00000001FF
