S01100005350495F534C4156452E737265634D
S11300000C942A000C9447000C9447000C9447006D
S11300100C9447000C9447000C9447000C94470040
S11300200C9447000C9447000C9447000C94470030
S11300300C9484030C9447000C9447000C944700E0
S11300400C9447000C9447000C9447000C94470010
S11300500C94470011241FBECFE5D8E0DEBFCDBF0E
S113006010E0A0E6B0E0EAECF7E002C005900D92E3
S1130070A036B107D9F710E0A0E6B0E001C01D92A8
S1130080A236B107E1F70E94AD030C94E3030C948C
S11300900000843008F08BC0683008F08AC0423019
S11300A008F089C0813041F1813038F0823009F4A0
S11300B041C0833009F081C05BC0413071F42AB380
S11300C081E090E0AC0102C0440F551F6A95E2F74D
S11300D0BA01622B6ABB80E008952AB381E090E004
S11300E0AC0102C0440F551F6A95E2F7BA0160954E
S11300F062236ABB80E00895413069F447B321E08C
S113010030E0C90102C0880F991F6A95E2F7842B79
S113011087BB80E0089527B381E090E0AC0102C082
S1130120440F551F6A95E2F7BA016095622367BBD5
S113013080E00895413069F444B321E030E0C9011E
S113014002C0880F991F6A95E2F7842B84BB80E074
S1130150089524B381E090E0AC0102C0440F551F20
S11301606A95E2F7BA016095622364BB80E0089562
S1130170413071F421B381E090E0AC0102C0440F3E
S1130180551F6A95E2F7BA01622B61BB80E00895BE
S113019021B381E090E0AC0102C0440F551F6A9581
S11301A0E2F7BA016095622361BB80E0089581E0C3
S11301B0089581E0089581E0089580E008958430F1
S11301C008F08BC0683008F08AC0423008F089C05B
S11301D0813041F1813038F0823009F441C08330FC
S11301E009F081C05BC0413071F42BB381E090E031
S11301F0AC0102C0440F551F6A95E2F7BA01622BA5
S11302006BBB80E008952BB381E090E0AC0102C0A9
S1130210440F551F6A95E2F7BA01609562236BBBE0
S113022080E00895413069F448B321E030E0C90129
S113023002C0880F991F6A95E2F7842B88BB80E07F
S1130240089528B381E090E0AC0102C0440F551F2B
S11302506A95E2F7BA016095622368BB80E008956D
S1130260413069F445B321E030E0C90102C0880F90
S1130270991F6A95E2F7842B85BB80E0089525B326
S113028081E090E0AC0102C0440F551F6A95E2F78B
S1130290BA016095622365BB80E00895413071F432
S11302A022B381E090E0AC0102C0440F551F6A956F
S11302B0E2F7BA01622B62BB80E0089522B381E0C9
S11302C090E0AC0102C0440F551F6A95E2F7BA01F1
S11302D06095622362BB80E0089581E0089581E027
S11302E0089581E0089580E00895843008F045C0C1
S11302F0683008F044C08130B1F0813030F0823091
S113030001F1833009F03DC02AC02BB381E090E0B5
S1130310AC0102C0440F551F6A95E2F7BA01622787
S11303206BBB80E0089528B381E090E0AC0102C08B
S1130330440F551F6A95E2F7BA01622768BB80E053
S1130340089525B381E090E0AC0102C0440F551F2D
S11303506A95E2F7BA01622765BB80E0089522B38B
S113036081E090E0AC0102C0440F551F6A95E2F7AA
S1130370BA01622762BB80E0089581E0089581E0BC
S1130380089580E00895843008F049C0683008F08A
S113039048C04115510509F446C08130B1F081309F
S11303A030F0823001F1833009F03FC02AC089B3B4
S11303B090E09C0102C0359527956A95E2F7B90152
S11303C06170FA01608380E0089586B390E09C0137
S11303D002C0359527956A95E2F7B9016170FA0173
S11303E0608380E0089583B390E09C0102C035955A
S11303F027956A95E2F7B9016170FA01608380E09C
S1130400089580B390E09C0102C0359527956A95C4
S1130410E2F7B9016170FA01608380E0089581E038
S1130420089581E0089581E0089580E0089584307E
S113043008F045C0683008F044C08130B1F0813024
S113044030F0823001F1833009F03DC02AC02BB373
S113045081E090E0AC0102C0440F551F6A95E2F7B9
S1130460BA01622B6BBB80E0089528B381E090E071
S1130470AC0102C0440F551F6A95E2F7BA01622B22
S113048068BB80E0089525B381E090E0AC0102C030
S1130490440F551F6A95E2F7BA01622B65BB80E0F1
S11304A0089522B381E090E0AC0102C0440F551FCF
S11304B06A95E2F7BA01622B62BB80E0089581E09D
S11304C0089581E0089580E008958430A8F581308E
S11304D091F0813028F08230C9F0833079F521C061
S11304E06F3F29F48AB38FEF8ABB80E008958AB303
S11304F01ABA80E008956F3F29F487B38FEF87BB62
S113050080E0089587B317BA80E008956F3F29F417
S113051084B38FEF84BB80E0089584B314BA80E081
S113052008956F3F29F481B38FEF81BB80E0089574
S113053081B311BA80E0089581E0089580E00895C0
S11305408430A8F4813051F0813028F0823049F0B1
S1130550833079F409C06BBB80E0089568BB80E008
S1130560089565BB80E0089562BB80E0089581E052
S1130570089580E00895843000F561157105F9F05F
S1130580813061F0813028F0823069F08330C9F421
S11305900FC08BB3FB01808380E0089588B3FB0117
S11305A0808380E0089585B3FB01808380E0089513
S11305B082B3FB01808380E0089581E0089581E0A7
S11305C0089580E008958430E8F4813061F081304A
S11305D028F0823069F08330B9F40FC08BB3809572
S11305E08BBB80E0089588B3809588BB80E0089534
S11305F085B3809585BB80E0089582B3809582BBE6
S113060080E0089581E0089580E008958430E8F45E
S1130610813061F0813028F0823069F08330B9F4A0
S11306200FC08BB38FEF8BBB80E0089588B38FEF3F
S113063088BB80E0089585B38FEF85BB80E0089583
S113064082B38FEF82BB80E0089581E0089580E05B
S11306500895843028F4683018F441E00E94490079
S11306600895843028F4683018F441E00E94DF00D3
S11306700895843028F4683018F440E00E94DF00C4
S11306800895843020F4683010F40E9475010895B0
S11306906F9A6A9A6B9A6C986D9A6E9A089561151E
S11306A0710549F09EB196FDFDCF8FB9779BFECFC2
S11306B08FB1FB0180830895009729F0779BFECFCB
S11306C02FB1FC01208308959EB196FDFDCF8FB913
S11306D008950F931F93CF938C01FC01808188238D
S11306E051F0C0E00E946403CF5FF801EC0FF11DEC
S11306F080818823B9F7CF911F910F91089590932A
S113070061008093600008951F920F920FB60F92BC
S113071011242F933F934F935F936F937F938F9302
S11307209F93AF93BF93EF93FF93E0916000F09199
S11307306100309709F00995FF91EF91BF91AF9156
S11307409F918F917F916F915F914F913F912F91E5
S11307500F900FBE0F901F901895CF93DF930F92B9
S1130760CDB7DEB781E064E040E00E94490081E05B
S113077065E040E00E94490081E067E040E00E94BB
S1130780490081E066E041E00E9449000E9448037C
S113079082E062E00E942903CE0101960E945C037C
S11307A088B382958F70982F917080FD05C082E088
S11307B062E00E943103F0CF913071F782E062E091
S10D07C00E943903E9CFF894FFCF3B
S9030000FC
