S00F0000365F54494D45522E73726563FF
S11300000C942A000C9447000C9447000C9447006D
S11300100C9447000C9447000C9447000C94470040
S11300200C9447000C9447000C94E2070C94A60728
S11300300C9447000C9447000C9447000C94470020
S11300400C944F030C9447000C9447000C94470005
S11300500C94470011241FBECFE5D8E0DEBFCDBF0E
S113006010E0A0E6B0E0E2E6FAE102C005900D92ED
S1130070A438B107D9F710E0A4E8B0E001C01D929C
S1130080A039B107E1F70E9435020C942F0D0C94AE
S11300900000CF93C82F80FD06C080E064E040E0FC
S11300A00E94100505C080E064E041E00E94100554
S11300B08C2F869580FD06C080E065E040E00E94BC
S11300C0100505C080E065E041E00E9410058C2F1A
S11300D08695869580FD06C080E066E040E00E943B
S11300E0100505C080E066E041E00E941005C69559
S11300F0C695C695C0FD06C080E067E040E00E945A
S1130100100505C080E067E041E00E941005CF9132
S11301100895CF93C82F81E065E040E00E94100568
S113012081E066E040E00E9410058C2F82958F707C
S11301300E94490081E067E041E00E9410058FE9D8
S11301409FE00197F1F700C0000081E067E040E024
S11301500E9410058C2F0E94490081E067E041E075
S11301600E9410058FE99FE00197F1F700C000009D
S113017081E067E040E00E941005CF91089581E09E
S113018065E041E00E947A0481E066E041E00E947B
S11301907A0481E067E041E00E947A0480E064E050
S11301A041E00E947A0480E065E041E00E947A0424
S11301B080E066E041E00E947A0480E067E041E08C
S11301C00E947A048FE795EBA1E081509040A04013
S11301D0E1F700C0000081E065E040E00E94100506
S11301E081E066E040E00E94100582E00E94490040
S11301F081E067E041E00E941005AFE9BFE011979C
S1130200F1F700C0000081E067E040E00E941005C3
S113021088E20E948900B0EFBA95F1F78CE00E9461
S1130220890080EF8A95F1F781E00E948900AFE3AD
S1130230BFE11197F1F700C0000086E00E94890039
S1130240B0EFBA95F1F70895CF93C82F81E065E038
S113025041E00E94100581E066E040E00E94100544
S11302608C2F82958F700E94490081E067E041E005
S11302700E9410058FE99FE00197F1F700C000008C
S113028081E067E040E00E9410058C2F0E94490045
S113029081E067E041E00E9410058FE99FE001974B
S11302A0F1F700C0000081E067E040E00E94100523
S11302B0CF910895CF93DF93EC018881882331F0A7
S11302C021960E94240189918823D9F7DF91CF9147
S11302D0089581E00E9489008FE39FE10197F1F77F
S11302E000C0000080E80E9489000895CF93DF9346
S11302F000D000D0CDB7DEB790E8998390EC9A8314
S113030094E99B8394ED9C838150FE01E60FF11DDB
S11303109081890F0E9489008FE99FE00197F1F78E
S113032000C000000F900F900F900F90DF91CF91BD
S113033008950F931F93CF93DF93CDB7DEB7A097A4
S11303400FB6F894DEBF0FBECDBF2DB73EB7285011
S113035030400FB6F8943EBF0FBE2DBFEDB7FEB7C9
S113036031968E010F5F1F4FADB7BEB712961C9327
S11303700E93119721E130E03383228320E630E0AD
S113038035832483978386830E944A0A2DB73EB718
S1130390285F3F4F0FB6F8943EBF0FBE2DBFC80174
S11303A00E945A01A0960FB6F894DEBF0FBECDBFCF
S11303B0DF91CF911F910F910895CF93DF93EC01BB
S11303C0862F642F0E947601CE010E949901DF914D
S11303D0CF9108950F931F93CF93DF93CDB7DEB7DB
S11303E0A0970FB6F894DEBF0FBECDBFDC01CB01E2
S11303F02DB73EB72A5030400FB6F8943EBF0FBE1B
S11304002DBF4DB75EB74F5F5F4F8E010F5F1F4F1C
S1130410EDB7FEB71283018321E130E0FA013383A3
S1130420228323E630E03583248386839783A08761
S1130430B1870E944A0A2DB73EB7265F3F4F0FB6D9
S1130440F8943EBF0FBE2DBFC8010E945A01A0966A
S11304500FB6F894DEBF0FBECDBFDF91CF911F91D1
S11304600F9108950E9489000895CF93DF9300D0DF
S1130470CDB7DEB70E94BF0080E061E040E00E949B
S11304807A0481E060E80E94B00280E00E94780370
S11304900F2EF8E88F2EF3E19F2EF0E0AF2EF0E060
S11304A0BF2EF02D0F2EF6E66F2EF0E07F2EF02DEE
S11304B00F2EFFE64F2EF0E05F2EF02D0F2EF5E706
S11304C02F2EF0E03F2EF02D81E0BE016F5F7F4FB5
S11304D00E94F50269817A8180E090E0A50194018F
S11304E00E94090A6B017C010B2EBAE0F694E79492
S11304F0D794C794BA95D1F7B02DB60180E090E0B7
S113050024E630E040E050E00E94090AA50194018D
S11305100E94280A122F80E060E0422F0E94F30319
S113052081E061E00E947601C3010E945A01C60184
S11305300E949901C2010E945A0180EC0E94890024
S113054081E062E00E947601C1010E945A01812F7C
S113055090E00E9499018CE790E00E945A01B4CF88
S1130560823029F0833049F0813049F403C03E9849
S11305703F9805C03E9A3F9802C03E9A3F9A3D98E4
S113058035983398862F82508F3768F56031E1F0C3
S1130590613138F4643081F0683091F0623019F5DB
S11305A007C06034C9F06038D9F06032E1F410C09B
S11305B030983198329817C03098319A329813C0D5
S11305C0309A319A32980FC030983198329A0BC0D1
S11305D0309A3198329A07C03098319A329A03C0CF
S11305E0309A319A329A379A08956115710509F44F
S11305F04EC0803208F04BC0833011F1843028F4AF
S1130600813091F08230B0F409C0853029F1853011
S1130610E8F0863039F1873081F52AC03898399866
S11306203A983B983C9829C0389A39983A983B981C
S11306303C9823C03898399A3A983B983C981DC006
S1130640389A399A3A983B983C9817C03898399810
S11306503A9A3B983C9811C0389A39983A9A3B9800
S11306603C980BC03898399A3A9A3B983C9805C004
S1130670389A399A3A9A3B983C98369A86B184FFCC
S1130680FDCF84B195B1FB0191838083349A0895A1
S1130690009721F0909385008093840008951F9221
S11306A00F920FB60F9211242F933F934F935F93A2
S11306B06F937F938F939F93AF93BF93EF93FF9326
S11306C0E0918400F0918500309709F00995FF913D
S11306D0EF91BF91AF919F918F917F916F915F91B6
S11306E04F913F912F910F900FBE0F901F9018952F
S11306F0823020F5882319F0813001F510C083E0A1
S113070064E041E00E947A0482E063E041E00E94F8
S11307107A0482E064E041E00E947A04089583E070
S113072065E041E00E947A0482E065E041E00E94D5
S11307307A0482E066E041E00E947A0408958230FF
S113074008F050C0623008F04DC0882321F0813099
S113075009F048C024C0662381F483E064E041E0EA
S11307600E94100582E063E041E00E94100582E0EF
S113077064E040E00E9410050895613099F583E03B
S113078064E041E00E94100582E063E040E00E94E2
S1130790100582E064E041E00E941005089566239C
S11307A081F483E065E041E00E94100582E065E0A9
S11307B041E00E94100582E066E040E00E941005DE
S11307C00895613079F483E065E041E00E9410050A
S11307D082E065E040E00E94100582E066E041E0CE
S11307E00E94100508951F93CF93DF93C82FD62F2F
S11307F0142F823008F05DC0623008F05AC04536CC
S113080008F057C081E063E041E00E947A040E944E
S11308105A07612F70E080E090E00E941809AB0154
S1130820BC01CB01BA010E9482070E946707CC2356
S113083019F0C130F1F51FC083E064E040E00E948C
S11308407A04DD2359F482E063E041E00E9410055C
S113085082E064E040E00E9410052BC0D13049F5ED
S113086082E063E040E00E94100582E064E041E041
S11308700E9410051EC083E065E040E00E947A04F7
S1130880DD2359F482E065E041E00E94100582E036
S113089066E040E00E9410050CC0D13051F482E0C3
S11308A065E040E00E94100582E066E041E00E94BD
S11308B01005DF91CF911F9108958230D0F48823E1
S11308C019F08130B1F40BC082E063E040E00E9493
S11308D0100582E064E040E00E941005089582E083
S11308E065E040E00E94100582E066E040E00E947E
S11308F010050895843008F08BC0683008F08AC071
S1130900423008F089C0813041F1813038F08230C2
S113091009F441C0833009F081C05BC0413071F4F7
S11309202AB381E090E0AC0102C0440F551F6A95E0
S1130930E2F7BA01622B6ABB80E008952AB381E032
S113094090E0AC0102C0440F551F6A95E2F7BA016A
S1130950609562236ABB80E00895413069F447B32F
S113096021E030E0C90102C0880F991F6A95E2F7BF
S1130970842B87BB80E0089527B381E090E0AC012D
S113098002C0440F551F6A95E2F7BA0160956223CD
S113099067BB80E00895413069F444B321E030E05E
S11309A0C90102C0880F991F6A95E2F7842B84BBA2
S11309B080E0089524B381E090E0AC0102C0440FCC
S11309C0551F6A95E2F7BA016095622364BB80E023
S11309D00895413071F421B381E090E0AC0102C08C
S11309E0440F551F6A95E2F7BA01622B61BB80E0A0
S11309F0089521B381E090E0AC0102C0440F551F7B
S1130A006A95E2F7BA016095622361BB80E00895BC
S1130A1081E0089581E0089581E0089580E00895DB
S1130A20843008F08BC0683008F08AC0423008F087
S1130A3089C0813041F1813038F0823009F441C0FD
S1130A40833009F081C05BC0413071F42BB381E085
S1130A5090E0AC0102C0440F551F6A95E2F7BA0159
S1130A60622B6BBB80E008952BB381E090E0AC0176
S1130A7002C0440F551F6A95E2F7BA0160956223DC
S1130A806BBB80E00895413069F448B321E030E065
S1130A90C90102C0880F991F6A95E2F7842B88BBAD
S1130AA080E0089528B381E090E0AC0102C0440FD7
S1130AB0551F6A95E2F7BA016095622368BB80E02E
S1130AC00895413069F445B321E030E0C90102C022
S1130AD0880F991F6A95E2F7842B85BB80E00895FF
S1130AE025B381E090E0AC0102C0440F551F6A9524
S1130AF0E2F7BA016095622365BB80E00895413056
S1130B0071F422B381E090E0AC0102C0440F551FA0
S1130B106A95E2F7BA01622B62BB80E0089522B3C2
S1130B2081E090E0AC0102C0440F551F6A95E2F7E2
S1130B30BA016095622362BB80E0089581E0089564
S1130B4081E0089581E0089580E00895843008F0FC
S1130B5045C0683008F044C08130B1F0813030F0D5
S1130B60823001F1833009F03DC02AC02BB381E00B
S1130B7090E0AC0102C0440F551F6A95E2F7BA0138
S1130B8062276BBB80E0089528B381E090E0AC015C
S1130B9002C0440F551F6A95E2F7BA01622768BB89
S1130BA080E0089525B381E090E0AC0102C0440FD9
S1130BB0551F6A95E2F7BA01622765BB80E0089584
S1130BC022B381E090E0AC0102C0440F551F6A9546
S1130BD0E2F7BA01622762BB80E0089581E00895DC
S1130BE081E0089580E00895843008F049C06830B9
S1130BF008F048C04115510509F446C08130B1F0F0
S1130C00813030F0823001F1833009F03FC02AC0D6
S1130C1089B390E09C0102C0359527956A95E2F767
S1130C20B9016170FA01608380E0089586B390E0B1
S1130C309C0102C0359527956A95E2F7B901617068
S1130C40FA01608380E0089583B390E09C0102C0C0
S1130C50359527956A95E2F7B9016170FA016083C9
S1130C6080E0089580B390E09C0102C035952795FB
S1130C706A95E2F7B9016170FA01608380E0089532
S1130C8081E0089581E0089581E0089580E0089569
S1130C90843008F045C0683008F044C08130B1F0B9
S1130CA0813030F0823001F1833009F03DC02AC038
S1130CB02BB381E090E0AC0102C0440F551F6A954C
S1130CC0E2F7BA01622B6BBB80E0089528B381E0A0
S1130CD090E0AC0102C0440F551F6A95E2F7BA01D7
S1130CE0622B68BB80E0089525B381E090E0AC01FD
S1130CF002C0440F551F6A95E2F7BA01622B65BB27
S1130D0080E0089522B381E090E0AC0102C0440F7A
S1130D10551F6A95E2F7BA01622B62BB80E0089521
S1130D2081E0089581E0089580E008958430A8F575
S1130D30813091F0813028F08230C9F0833079F528
S1130D4021C06F3F29F48AB38FEF8ABB80E00895F6
S1130D508AB31ABA80E008956F3F29F487B38FEFFE
S1130D6087BB80E0089587B317BA80E008956F3F8A
S1130D7029F484B38FEF84BB80E0089584B314BA5C
S1130D8080E008956F3F29F481B38FEF81BB80E049
S1130D90089581B311BA80E0089581E0089580E058
S1130DA008958430A8F4813051F0813028F08230E5
S1130DB049F0833079F409C06BBB80E0089568BBC7
S1130DC080E0089565BB80E0089562BB80E00895EB
S1130DD081E0089580E00895843000F5611571057F
S1130DE0F9F0813061F0813028F0823069F083308D
S1130DF0C9F40FC08BB3FB01808380E0089588B3EE
S1130E00FB01808380E0089585B3FB01808380E04B
S1130E10089582B3FB01808380E0089581E0089502
S1130E2081E0089580E008958430E8F4813061F031
S1130E30813028F0823069F08330B9F40FC08BB36D
S1130E4080958BBB80E0089588B3809588BB80E053
S1130E50089585B3809585BB80E0089582B380951D
S1130E6082BB80E0089581E0089580E00895843095
S1130E70E8F4813061F0813028F0823069F0833009
S1130E80B9F40FC08BB38FEF8BBB80E0089588B3A8
S1130E908FEF88BB80E0089585B38FEF85BB80E03A
S1130EA0089582B38FEF82BB80E0089581E00895B6
S1130EB080E0089583B7806483BF83B7886083BF6D
S1130EC083B78F7E83BF83B7806283BF089583B760
S1130ED0816083BF83B7826083BF83B78B7F83BF07
S1130EE0089583B78E7F83BF83B78D7F83BF83B716
S1130EF08B7F83BF089529EF2CBF90938700809345
S1130F008600089520E030E048EC52E40E94840812
S1130F1020E030E040E853E40E94A60920E030E0FD
S1130F2040E85FE30E941F080E94EC086CBF08952C
S1130F30009721F09093890080938800089500978A
S1130F4021F090938B0080938A0008951F920F9252
S1130F500FB60F9211242F933F934F935F936F9388
S1130F607F938F939F93AF93BF93EF93FF9380915E
S1130F708C0090918D00019690938D0080938C004D
S1130F8023E0813D920769F410928D0010928C0049
S1130F9081E782BFE0918800F0918900309709F0E1
S1130FA00995FF91EF91BF91AF919F918F917F919F
S1130FB06F915F914F913F912F910F900FBE0F90C2
S1130FC01F9018951F920F920FB60F9211242F9312
S1130FD03F934F935F936F937F938F939F93AF93BD
S1130FE0BF93EF93FF9380918E0090918F000196B1
S1130FF090938F0080938E0020918600309187001B
S11310008217930759F410928F0010928E00E0918A
S11310108A00F0918B00309709F00995FF91EF91C8
S1131020BF91AF919F918F917F916F915F914F91FC
S11310303F912F910F900FBE0F901F90189550580D
S1131040BB27AA270ED048C139D130F03ED120F0B9
S113105031F49F3F11F41EF42EC10EF4E095E7FB2A
S113106024C1E92F4AD180F3BA17620773078407B2
S1131070950718F071F49EF562C10EF4E0950B2EFD
S1131080BA2FA02D0B01B90190010C01CA01A001D6
S11310901124FF27591B99F0593F50F4503E68F131
S11310A01A16F040A22F232F342F4427585FF3CF72
S11310B0469537952795A795F0405395C9F77EF443
S11310C01F16BA0B620B730B840BBAF09150A1F08C
S11310D0FF0FBB1F661F771F881FC2F70EC0BA0F12
S11310E0621F731F841F48F4879577956795B7959A
S11310F0F7959E3F08F0B3CF9395880F08F0992792
S1131100EE0F9795879508950CD0E6C0DED040F099
S1131110D5D030F021F45F3F19F0C7C0511110C190
S1131120CAC0EBD098F39923C9F35523B1F3951BA7
S1131130550BBB27AA2762177307840738F09F5FF4
S11311405F4F220F331F441FAA1FA9F333D00E2E63
S11311503AF0E0E830D091505040E695001CCAF7D0
S113116029D0FE2F27D0660F771F881FBB1F261795
S113117037074807AB07B0E809F0BB0B802DBF0168
S1131180FF2793585F4F2AF09E3F510568F08DC0AA
S1131190D7C05F3FECF3983EDCF38695779567956F
S11311A0B795F7959F5FC9F7880F911D9695879519
S11311B097F90895E1E0660F771F881FBB1F621738
S11311C073078407BA0720F0621B730B840BBA0BF6
S11311D0EE1F88F7E095089598D088F09F5790F017
S11311E0B92F9927B751A0F0D1F0660F771F881F48
S11311F0991F1AF0BA95C9F712C0B13081F09FD087
S1131200B1E008959CC0672F782F8827B85F39F024
S1131210B93FCCF3869577956795B395D9F73EF4A6
S113122090958095709561957F4F8F4F9F4F08954E
S1131230E89409C097FB3EF490958095709561956C
S11312407F4F8F4F9F4F9923A9F0F92F96E9BB2722
S11312509395F695879577956795B795F111F8CF9E
S1131260FAF4BB0F11F460FF1BC06F5F7F4F8F4F09
S11312709F4F16C0882311F096E911C0772321F0FF
S11312809EE8872F762F05C0662371F096E8862F97
S113129070E060E02AF09A95660F771F881FDAF7EE
S11312A0880F9695879597F9089597F99F6780E831
S11312B070E060E008959FEF80EC089500240A94A4
S11312C01616170618060906089500240A9412161D
S11312D01306140605060895092E0394000C11F450
S11312E0882352F0BB0F40F4BF2B11F460FF04C0FD
S11312F06F5F7F4F8F4F9F4F089557FD9058440F56
S1131300551F59F05F3F71F04795880F97FB991F60
S113131061F09F3F79F0879508951216130614061D
S1131320551FF2CF4695F1DF08C0161617061806AA
S1131330991FF1CF86957105610508940895E89485
S1131340BB2766277727CB0197F908950BD0C4CF25
S1131350B5DF28F0BADF18F0952309F0A6CFABCF9C
S11313601124EECFCADFA0F3959FD1F3950F50E07F
S1131370551F629FF001729FBB27F00DB11D639F43
S1131380AA27F00DB11DAA1F649F6627B00DA11DE9
S1131390661F829F2227B00DA11D621F739FB00D8F
S11313A0A11D621F839FA00D611D221F749F3327FF
S11313B0A00D611D231F849F600D211D822F762F98
S11313C06A2F11249F5750408AF0E1F088234AF095
S11313D0EE0FFF1FBB1F661F771F881F91505040E1
S11313E0A9F79E3F510570F060CFAACF5F3FECF3A1
S11313F0983EDCF3869577956795B795F795E795CD
S11314009F5FC1F7FE2B880F911D9695879597F9DD
S11314100895629FD001739FF001829FE00DF11D3A
S1131420649FE00DF11D929FF00D839FF00D749F5A
S1131430F00D659FF00D9927729FB00DE11DF91F06
S1131440639FB00DE11DF91FBD01CF011124089563
S1131450A1E21A2EAA1BBB1BFD010DC0AA1FBB1FB4
S1131460EE1FFF1FA217B307E407F50720F0A21B26
S1131470B30BE40BF50B661F771F881F991F1A9493
S113148069F760957095809590959B01AC01BD01BD
S1131490CF010895AEE0B0E0E0E5FAE00C94060D6B
S11314A00D891E898F89988D26E02C831A830983E0
S11314B097FF02C080E090E801979E838D83AE0180
S11314C0455E5F4FCE010196698D7A8D0E947A0A3E
S11314D04D815E8157FD0AC02F813885421753071D
S11314E00CF49A01020F131FF80110822E96E4E007
S11314F00C94220DADE0B0E0E0E8FAE00C94F80CB6
S11315003C017D876C875A01FC0117821682838116
S113151081FFC8C12E010894411C511CF301938121
S1131520EC85FD8593FD859193FF8191FD87EC8783
S1131530882309F4B3C1853241F493FD859193FF67
S11315408191FD87EC87853229F490E0B3010E94F4
S11315506E0CE4CFFF24EE2410E01032B0F48B3292
S113156069F08C3228F4803251F0833271F40BC06C
S11315708D3239F0803349F411602CC0126014604C
S113158029C0186027C0106125C017FD2EC0282F60
S113159020532A3098F416FF08C08F2D880FF82E98
S11315A0FF0CFF0CF80EF20E15C08E2D880FE82EDE
S11315B0EE0CEE0CE80EE20E10620CC08E3221F43A
S11315C016FD6CC1106406C08C3611F4106802C09C
S11315D0883659F4EC85FD8593FD859193FF8191BF
S11315E0FD87EC87882309F0B8CF982F9554933062
S11315F018F09052933038F424E030E0A20EB31E79
S11316003FE339830FC0833631F0833781F083356C
S113161009F05AC022C0F5018081898322E030E0BC
S1131620A20EB31E21E0C22ED12C420114C092E0BE
S1131630292E312C2A0C3B1CF5018080918016FF49
S113164003C06F2D70E002C06FEF7FEFC4010E94F2
S1131650630C6C0151011F7715C082E0282E312CD8
S11316602A0C3B1CF5018080918016FF03C06F2D6E
S113167070E002C06FEF7FEFC4010E94580C6C0150
S11316801068510113FD1CC006C080E290E0B30154
S11316900E946E0CEA948E2D90E0C816D906A8F329
S11316A00FC0F40117FD859117FF81914F0190E060
S11316B0B3010E946E0CE110EA940894C108D108A9
S11316C0C114D10471F7E7C0843611F0893651F59D
S11316D0F50117FF07C080819181A281B38124E0C5
S11316E030E008C080819181AA2797FDA095BA2F88
S11316F022E030E0A20EB31E012F0F76B7FF08C020
S1131700B095A095909581959F4FAF4FBF4F0068BE
S1131710BC01CD01A2012AE030E00E949A0CD82E2F
S1131720D4183FC0853721F41F7E2AE030E020C062
S1131730197F8F36A9F0803720F4883509F0AEC0C0
S11317400BC0803721F0883709F0A8C001C01061B0
S113175014FF09C0146007C014FF08C0166006C057
S113176028E030E005C020E130E002C020E132E0B2
S1131770F50117FF07C0608171818281938144E084
S113178050E006C06081718180E090E042E050E06A
S1131790A40EB51EA2010E949A0CD82ED418012FB3
S11317A00F7706FF09C00E7FDF1430F404FF06C074
S11317B002FD04C00F7E02C01D2D01C01F2D802F0D
S11317C090E004FF0CC0FE01ED0DF11D20812033DB
S11317D011F4097E09C002FF06C01E5F05C08678A9
S11317E09070009709F01F5F802E992403FD12C0AA
S11317F000FF0DC0FD2C1E1550F4FE0CF11A1E2D19
S113180006C080E290E0B3010E946E0C1F5F1E15BB
S1131810C0F304C01E1510F4E11A01C0EE2484FEC6
S11318200FC080E390E0B3010E946E0C82FE1FC0E3
S113183081FE03C088E590E010C088E790E00DC009
S1131840C40186789070009791F081FC02C080E218
S113185001C08BE207FD8DE290E0B3010E946E0CA3
S113186006C080E390E0B3010E946E0CFA94DF148A
S1131870C0F3DA94F201ED0DF11D808190E0B30123
S11318800E946E0CDD20A9F706C080E290E0B3014F
S11318900E946E0CEA94EE20C1F740CEF3018681DB
S11318A0978102C08FEF9FEF2D96E2E10C94140D07
S11318B0FC010590615070400110D8F78095909517
S11318C08E0F9F1F0895FC0161507040019001101C
S11318D0D8F7809590958E0F9F1F08950F931F93AF
S11318E0CF93DF938C01EB018B8181FF1BC082FFBF
S11318F00DC02E813F818C819D812817390764F4A6
S1131900E881F9810193F983E88306C0E885F985C4
S1131910802F0995009731F48E819F8101969F83D2
S11319208E8302C00FEF1FEFC801DF91CF911F918B
S11319300F910895FA01AA27283051F1203181F13D
S1131940E8946F936E7F6E5F7F4F8F4F9F4FAF4FC3
S1131950B1E03ED0B4E03CD0670F781F891F9A1FD6
S1131960A11D680F791F8A1F911DA11D6A0F711D8A
S1131970811D911DA11D20D009F468943F912AE096
S1131980269F11243019305D3193DEF6CF0108957E
S1131990462F4770405D4193B3E00FD0C9F7F6CFAF
S11319A0462F4F70405D4A3318F0495D31FD405277
S11319B0419302D0A9F7EACFB4E0A695979587950D
S11319C077956795BA95C9F70097610571050895EC
S11319D09B01AC010A2E0694579547953795279598
S11319E0BA95C9F7620F731F841F951FA01D089530
S11319F02F923F924F925F926F927F928F929F921B
S1131A00AF92BF92CF92DF92EF92FF920F931F9308
S1131A10CF93DF93CDB7DEB7CA1BDB0B0FB6F894B9
S1131A20DEBF0FBECDBF09942A88398848885F84F9
S1131A306E847D848C849B84AA84B984C884DF806A
S1131A40EE80FD800C811B81AA81B981CE0FD11D4E
S1131A500FB6F894DEBF0FBECDBFED010895F89424
S1051A60FFCFB2
S1131A62256400256600566F6C746167653D006DE0
S1131A72562020200073706565643D0025202020D7
S1071A8220202000FC
S9030000FC
