S00B00004144432E7372656351
S11300000C942A000C9447000C9447000C9447006D
S11300100C9447000C9447000C9447000C94470040
S11300200C9447000C9447000C9447000C94470030
S11300300C9447000C9447000C9447000C94470020
S11300400C94E8000C9447000C9447000C9447006F
S11300500C94470011241FBECFE5D8E0DEBFCDBF0E
S113006010E0A0E6B0E0E6E5F2E102C005900D92F2
S1130070A237B107D9F710E0A2E7B0E001C01D92A2
S1130080A437B107E1F70E94DD050C9429090C940B
S11300900000823029F0833049F0813049F403C0F4
S11300A03E983F9805C03E9A3F9802C03E9A3F9AB8
S11300B03D9835983398862F82508F3768F5603194
S11300C0E1F0613138F4643081F0683091F06230ED
S11300D019F507C06034C9F06038D9F06032E1F432
S11300E010C030983198329817C03098319A3298AD
S11300F013C0309A319A32980FC030983198329A9E
S11301000BC0309A3198329A07C03098319A329A9B
S113011003C0309A319A329A379A0895611571055D
S113012009F44EC0803208F04BC0833011F18430A2
S113013028F4813091F08230B0F409C0853029F17F
S11301408530E8F0863039F1873081F52AC0389857
S113015039983A983B983C9829C0389A39983A98F3
S11301603B983C9823C03898399A3A983B983C98E5
S11301701DC0389A399A3A983B983C9817C03898D9
S113018039983A9A3B983C9811C0389A39983A9AD7
S11301903B983C980BC03898399A3A9A3B983C98CB
S11301A005C0389A399A3A9A3B983C98369A86B15F
S11301B084FFFDCF84B195B1FB0191838083349A90
S11301C00895009721F0909373008093720008952E
S11301D01F920F920FB60F9211242F933F934F93B8
S11301E05F936F937F938F939F93AF93BF93EF939B
S11301F0FF93E0917200F0917300309709F0099534
S1130200FF91EF91BF91AF919F918F917F916F91EA
S11302105F914F913F912F910F900FBE0F901F90C0
S11302201895843008F08BC0683008F08AC04230DA
S113023008F089C0813041F1813038F0823009F40E
S113024041C0833009F081C05BC0413071F42AB3EE
S113025081E090E0AC0102C0440F551F6A95E2F7BB
S1130260BA01622B6ABB80E008952AB381E090E072
S1130270AC0102C0440F551F6A95E2F7BA016095BC
S113028062236ABB80E00895413069F447B321E0FA
S113029030E0C90102C0880F991F6A95E2F7842BE8
S11302A087BB80E0089527B381E090E0AC0102C0F1
S11302B0440F551F6A95E2F7BA016095622367BB44
S11302C080E00895413069F444B321E030E0C9018D
S11302D002C0880F991F6A95E2F7842B84BB80E0E3
S11302E0089524B381E090E0AC0102C0440F551F8F
S11302F06A95E2F7BA016095622364BB80E00895D1
S1130300413071F421B381E090E0AC0102C0440FAC
S1130310551F6A95E2F7BA01622B61BB80E008952C
S113032021B381E090E0AC0102C0440F551F6A95EF
S1130330E2F7BA016095622361BB80E0089581E031
S1130340089581E0089581E0089580E0089584305F
S113035008F08BC0683008F08AC0423008F089C0C9
S1130360813041F1813038F0823009F441C083306A
S113037009F081C05BC0413071F42BB381E090E09F
S1130380AC0102C0440F551F6A95E2F7BA01622B13
S11303906BBB80E008952BB381E090E0AC0102C018
S11303A0440F551F6A95E2F7BA01609562236BBB4F
S11303B080E00895413069F448B321E030E0C90198
S11303C002C0880F991F6A95E2F7842B88BB80E0EE
S11303D0089528B381E090E0AC0102C0440F551F9A
S11303E06A95E2F7BA016095622368BB80E00895DC
S11303F0413069F445B321E030E0C90102C0880FFF
S1130400991F6A95E2F7842B85BB80E0089525B394
S113041081E090E0AC0102C0440F551F6A95E2F7F9
S1130420BA016095622365BB80E00895413071F4A0
S113043022B381E090E0AC0102C0440F551F6A95DD
S1130440E2F7BA01622B62BB80E0089522B381E037
S113045090E0AC0102C0440F551F6A95E2F7BA015F
S11304606095622362BB80E0089581E0089581E095
S1130470089581E0089580E00895843008F045C02F
S1130480683008F044C08130B1F0813030F08230FF
S113049001F1833009F03DC02AC02BB381E090E024
S11304A0AC0102C0440F551F6A95E2F7BA016227F6
S11304B06BBB80E0089528B381E090E0AC0102C0FA
S11304C0440F551F6A95E2F7BA01622768BB80E0C2
S11304D0089525B381E090E0AC0102C0440F551F9C
S11304E06A95E2F7BA01622765BB80E0089522B3FA
S11304F081E090E0AC0102C0440F551F6A95E2F719
S1130500BA01622762BB80E0089581E0089581E02A
S1130510089580E00895843008F049C0683008F0F8
S113052048C04115510509F446C08130B1F081300D
S113053030F0823001F1833009F03FC02AC089B322
S113054090E09C0102C0359527956A95E2F7B901C0
S11305506170FA01608380E0089586B390E09C01A5
S113056002C0359527956A95E2F7B9016170FA01E1
S1130570608380E0089583B390E09C0102C03595C8
S113058027956A95E2F7B9016170FA01608380E00A
S1130590089580B390E09C0102C0359527956A9533
S11305A0E2F7B9016170FA01608380E0089581E0A7
S11305B0089581E0089581E0089580E008958430ED
S11305C008F045C0683008F044C08130B1F0813093
S11305D030F0823001F1833009F03DC02AC02BB3E2
S11305E081E090E0AC0102C0440F551F6A95E2F728
S11305F0BA01622B6BBB80E0089528B381E090E0E0
S1130600AC0102C0440F551F6A95E2F7BA01622B90
S113061068BB80E0089525B381E090E0AC0102C09E
S1130620440F551F6A95E2F7BA01622B65BB80E05F
S1130630089522B381E090E0AC0102C0440F551F3D
S11306406A95E2F7BA01622B62BB80E0089581E00B
S1130650089581E0089580E008958430A8F58130FC
S113066091F0813028F08230C9F0833079F521C0CF
S11306706F3F29F48AB38FEF8ABB80E008958AB371
S11306801ABA80E008956F3F29F487B38FEF87BBD0
S113069080E0089587B317BA80E008956F3F29F486
S11306A084B38FEF84BB80E0089584B314BA80E0F0
S11306B008956F3F29F481B38FEF81BB80E00895E3
S11306C081B311BA80E0089581E0089580E008952F
S11306D08430A8F4813051F0813028F0823049F020
S11306E0833079F409C06BBB80E0089568BB80E077
S11306F0089565BB80E0089562BB80E0089581E0C1
S1130700089580E00895843000F561157105F9F0CD
S1130710813061F0813028F0823069F08330C9F48F
S11307200FC08BB3FB01808380E0089588B3FB0185
S1130730808380E0089585B3FB01808380E0089581
S113074082B3FB01808380E0089581E0089581E015
S1130750089580E008958430E8F4813061F08130B8
S113076028F0823069F08330B9F40FC08BB38095E0
S11307708BBB80E0089588B3809588BB80E00895A2
S113078085B3809585BB80E0089582B3809582BB54
S113079080E0089581E0089580E008958430E8F4CD
S11307A0813061F0813028F0823069F08330B9F40F
S11307B00FC08BB38FEF8BBB80E0089588B38FEFAE
S11307C088BB80E0089585B38FEF85BB80E00895F2
S11307D082B38FEF82BB80E0089581E0089580E0CA
S11307E00895CF93C82F80FD06C080E064E040E008
S11307F00E94A70105C080E064E041E00E94A701D7
S11308008C2F869580FD06C080E065E040E00E9464
S1130810A70105C080E065E041E00E94A7018C2F9C
S11308208695869580FD06C080E066E040E00E94E3
S1130830A70105C080E066E041E00E94A701C695DB
S1130840C695C695C0FD06C080E067E040E00E9402
S1130850A70105C080E067E041E00E94A701CF91B5
S11308600895CF93C82F81E061E040E00E94A70182
S113087081E062E040E00E94A7018C2F82958F7096
S11308800E94F10381E063E041E00E94A7018FE947
S11308909FE00197F1F700C0000081E063E040E0D1
S11308A00E94A7018C2F0E94F10381E063E041E0E4
S11308B00E94A7018FE99FE00197F1F700C00000B3
S11308C081E063E040E00E94A701CF91089581E0B8
S11308D061E041E00E94110181E062E041E00E9498
S11308E0110181E063E041E00E94110180E064E0D5
S11308F041E00E94110180E065E041E00E941101A5
S113090080E066E041E00E94110180E067E041E0A0
S11309100E9411018FE795EBA1E081509040A04027
S1130920E1F700C0000081E061E040E00E94A7011F
S113093081E062E040E00E94A70182E00E94F103AE
S113094081E063E041E00E94A701AFE9BFE01197B5
S1130950F1F700C0000081E063E040E00E94A701DD
S113096088E20E943104B0EFBA95F1F78CE00E945E
S1130970310480EF8A95F1F781E00E943104AFE3FE
S1130980BFE11197F1F700C0000086E00E94310436
S1130990B0EFBA95F1F70895CF93C82F81E061E0E5
S11309A041E00E94A70181E062E040E00E94A701CB
S11309B08C2F82958F700E94F10381E063E041E007
S11309C00E94A7018FE99FE00197F1F700C00000A2
S11309D081E063E040E00E94A7018C2F0E94F103B4
S11309E081E063E041E00E94A7018FE99FE0019765
S11309F0F1F700C0000081E063E040E00E94A7013D
S1130A00CF910895CF93DF93EC018881882331F04F
S1130A1021960E94CC0489918823D9F7DF91CF9144
S1130A20089581E00E9431048FE39FE10197F1F77B
S1130A3000C0000080E80E9431040895CF93DF9342
S1130A4000D000D0CDB7DEB790E8998390EC9A83BC
S1130A5094E99B8394ED9C838150FE01E60FF11D84
S1130A609081890F0E9431048FE99FE00197F1F78B
S1130A7000C000000F900F900F900F90DF91CF9166
S1130A8008950F931F93CF93DF93CDB7DEB7A0974D
S1130A900FB6F894DEBF0FBECDBF2DB73EB72850BA
S1130AA030400FB6F8943EBF0FBE2DBFEDB7FEB772
S1130AB031968E010F5F1F4FADB7BEB712961C93D0
S1130AC00E93119721E130E03383228320E630E056
S1130AD035832483978386830E9444062DB73EB7CB
S1130AE0285F3F4F0FB6F8943EBF0FBE2DBFC8011D
S1130AF00E940205A0960FB6F894DEBF0FBECDBFCC
S1130B00DF91CF911F910F910895CF93DF93EC0163
S1130B10862F642F0E941E05CE010E944105DF919D
S1130B20CF9108950F931F93CF93DF93CDB7DEB783
S1130B30A0970FB6F894DEBF0FBECDBFDC01CB018A
S1130B402DB73EB72A5030400FB6F8943EBF0FBEC3
S1130B502DBF4DB75EB74F5F5F4F8E010F5F1F4FC5
S1130B60EDB7FEB71283018321E130E0FA0133834C
S1130B70228323E630E03583248386839783A0870A
S1130B80B1870E9444062DB73EB7265F3F4F0FB68C
S1130B90F8943EBF0FBE2DBFC8010E940205A09667
S1130BA00FB6F894DEBF0FBECDBFDF91CF911F917A
S1130BB00F9108950E9431040895CF93DF9300D0DC
S1130BC0CDB7DEB780E061E040E00E9411010E94F1
S1130BD0670481E060E80E94490006E610E00F2EF9
S1130BE0FFE6AF2EF0E0BF2EF02D81E0BE016F5F77
S1130BF07F4F0E948E0069817A8180E090E028E82E
S1130C0033E140E050E00E9425066B017C010B2E8D
S1130C10BAE0F694E794D794C794BA95D1F7B02D77
S1130C20C8010E940205C6010E944105C5010E9437
S1130C3002058FEF99E6A8E181509040A040E1F7CA
S1130C4000C000000E941105D0CF629FD001739FA5
S1130C50F001829FE00DF11D649FE00DF11D929F54
S1130C60F00D839FF00D749FF00D659FF00D992793
S1130C70729FB00DE11DF91F639FB00DE11DF91FB7
S1130C80BD01CF0111240895AEE0B0E0EAE4F6E03E
S1130C900C9400090D891E898F89988D26E02C8378
S1130CA01A83098397FF02C080E090E801979E832E
S1130CB08D83AE01455E5F4FCE010196698D7A8DBD
S1130CC00E9474064D815E8157FD0AC02F813885CC
S1130CD0421753070CF49A01020F131FF8011082F4
S1130CE02E96E4E00C941C09ADE0B0E0EAE7F6E0EF
S1130CF00C94F2083C017D876C875A01FC01178231
S1130D001682838181FFC8C12E010894411C511CA5
S1130D10F3019381EC85FD8593FD859193FF81918A
S1130D20FD87EC87882309F4B3C1853241F493FD30
S1130D30859193FF8191FD87EC87853229F490E0BA
S1130D40B3010E946808E4CFFF24EE2410E01032BF
S1130D50B0F48B3269F08C3228F4803251F0833253
S1130D6071F40BC08D3239F0803349F411602CC01A
S1130D701260146029C0186027C0106125C017FDD7
S1130D802EC0282F20532A3098F416FF08C08F2D28
S1130D90880FF82EFF0CFF0CF80EF20E15C08E2DE6
S1130DA0880FE82EEE0CEE0CE80EE20E10620CC07A
S1130DB08E3221F416FD6CC1106406C08C3611F419
S1130DC0106802C0883659F4EC85FD8593FD859141
S1130DD093FF8191FD87EC87882309F0B8CF982F82
S1130DE09554933018F09052933038F424E030E066
S1130DF0A20EB31E3FE339830FC0833631F083372D
S1130E0081F0833509F05AC022C0F50180818983BD
S1130E1022E030E0A20EB31E21E0C22ED12C42010A
S1130E2014C092E0292E312C2A0C3B1CF501808041
S1130E30918016FF03C06F2D70E002C06FEF7FEF4B
S1130E40C4010E945D086C0151011F7715C082E046
S1130E50282E312C2A0C3B1CF5018080918016FF32
S1130E6003C06F2D70E002C06FEF7FEFC4010E94DA
S1130E7052086C011068510113FD1CC006C080E2C9
S1130E8090E0B3010E946808EA948E2D90E0C816A1
S1130E90D906A8F30FC0F40117FD859117FF8191BE
S1130EA04F0190E0B3010E946808E110EA940894AD
S1130EB0C108D108C114D10471F7E7C0843611F018
S1130EC0893651F5F50117FF07C080819181A28110
S1130ED0B38124E030E008C080819181AA2797FD86
S1130EE0A095BA2F22E030E0A20EB31E012F0F7698
S1130EF0B7FF08C0B095A095909581959F4FAF4FCF
S1130F00BF4F0068BC01CD01A2012AE030E00E947D
S1130F109408D82ED4183FC0853721F41F7E2AE0C8
S1130F2030E020C0197F8F36A9F0803720F488354F
S1130F3009F0AEC00BC0803721F0883709F0A8C093
S1130F4001C0106114FF09C0146007C014FF08C079
S1130F50166006C028E030E005C020E130E002C0A1
S1130F6020E132E0F50117FF07C0608171818281C1
S1130F70938144E050E006C06081718180E090E09C
S1130F8042E050E0A40EB51EA2010E949408D82E9F
S1130F90D418012F0F7706FF09C00E7FDF1430F439
S1130FA004FF06C002FD04C00F7E02C01D2D01C057
S1130FB01F2D802F90E004FF0CC0FE01ED0DF11DEC
S1130FC02081203311F4097E09C002FF06C01E5F90
S1130FD005C086789070009709F01F5F802E9924D1
S1130FE003FD12C000FF0DC0FD2C1E1550F4FE0CB5
S1130FF0F11A1E2D06C080E290E0B3010E94680839
S11310001F5F1E15C0F304C01E1510F4E11A01C0C1
S1131010EE2484FE0FC080E390E0B3010E946808D0
S113102082FE1FC081FE03C088E590E010C088E7FF
S113103090E00DC0C40186789070009791F081FC17
S113104002C080E201C08BE207FD8DE290E0B301B3
S11310500E94680806C080E390E0B3010E9468081B
S1131060FA94DF14C0F3DA94F201ED0DF11D8081DE
S113107090E0B3010E946808DD20A9F706C080E271
S113108090E0B3010E946808EA94EE20C1F740CED4
S1131090F3018681978102C08FEF9FEF2D96E2E1E5
S11310A00C940E09FC010590615070400110D8F7B2
S11310B0809590958E0F9F1F0895FC01615070409C
S11310C001900110D8F7809590958E0F9F1F089579
S11310D00F931F93CF93DF938C01EB018B8181FFDF
S11310E01BC082FF0DC02E813F818C819D812817FA
S11310F0390764F4E881F9810193F983E88306C030
S1131100E885F985802F0995009731F48E819F81B8
S113111001969F838E8302C00FEF1FEFC801DF91FA
S1131120CF911F910F910895FA01AA27283051F108
S1131130203181F1E8946F936E7F6E5F7F4F8F4F04
S11311409F4FAF4FB1E03ED0B4E03CD0670F781F63
S1131150891F9A1FA11D680F791F8A1F911DA11D48
S11311606A0F711D811D911DA11D20D009F4689481
S11311703F912AE0269F11243019305D3193DEF629
S1131180CF010895462F4770405D4193B3E00FD0DF
S1131190C9F7F6CF462F4F70405D4A3318F0495DCA
S11311A031FD4052419302D0A9F7EACFB4E0A695AD
S11311B09795879577956795BA95C9F700976105CF
S11311C0710508959B01AC010A2E06945795479525
S11311D037952795BA95C9F7620F731F841F951F1A
S11311E0A01D08952F923F924F925F926F927F922B
S11311F08F929F92AF92BF92CF92DF92EF92FF9223
S11312000F931F93CF93DF93CDB7DEB7CA1BDB0BCE
S11312100FB6F894DEBF0FBECDBF09942A88398873
S113122048885F846E847D848C849B84AA84B9847A
S1131230C884DF80EE80FD800C811B81AA81B98186
S1131240CE0FD11D0FB6F894DEBF0FBECDBFED019A
S10912500895F894FFCF9D
S1131256256400256600566F6C746167653D006DF4
S105126656002C
S9030000FC
