:100000000C942A000C94B9030C94E2030C940B0496
:100010000C9447000C9447000C9447000C94470044
:100020000C9447000C9447000C9447000C94470034
:100030000C9447000C9447000C9447000C94470024
:100040000C9447000C9447000C9447000C94470014
:100050000C94470011241FBECFE5D8E0DEBFCDBF12
:1000600010E0A0E6B0E0E6E8F2E102C005900D92F3
:10007000A636B107D9F710E0A6E6B0E001C01D92A0
:10008000AD36B107E1F70E9442060C9441090C9489
:100090000000843008F08BC0683008F08AC042301D
:1000A00008F089C0813041F1813038F0823009F4A4
:1000B00041C0833009F081C05BC0413071F42AB384
:1000C00081E090E0AC0102C0440F551F6A95E2F751
:1000D000BA01622B6ABB80E008952AB381E090E008
:1000E000AC0102C0440F551F6A95E2F7BA01609552
:1000F00062236ABB80E00895413069F447B321E090
:1001000030E0C90102C0880F991F6A95E2F7842B7D
:1001100087BB80E0089527B381E090E0AC0102C086
:10012000440F551F6A95E2F7BA016095622367BBD9
:1001300080E00895413069F444B321E030E0C90122
:1001400002C0880F991F6A95E2F7842B84BB80E078
:10015000089524B381E090E0AC0102C0440F551F24
:100160006A95E2F7BA016095622364BB80E0089566
:10017000413071F421B381E090E0AC0102C0440F42
:10018000551F6A95E2F7BA01622B61BB80E00895C2
:1001900021B381E090E0AC0102C0440F551F6A9585
:1001A000E2F7BA016095622361BB80E0089581E0C7
:1001B000089581E0089581E0089580E008958430F5
:1001C00008F08BC0683008F08AC0423008F089C05F
:1001D000813041F1813038F0823009F441C0833000
:1001E00009F081C05BC0413071F42BB381E090E035
:1001F000AC0102C0440F551F6A95E2F7BA01622BA9
:100200006BBB80E008952BB381E090E0AC0102C0AD
:10021000440F551F6A95E2F7BA01609562236BBBE4
:1002200080E00895413069F448B321E030E0C9012D
:1002300002C0880F991F6A95E2F7842B88BB80E083
:10024000089528B381E090E0AC0102C0440F551F2F
:100250006A95E2F7BA016095622368BB80E0089571
:10026000413069F445B321E030E0C90102C0880F94
:10027000991F6A95E2F7842B85BB80E0089525B32A
:1002800081E090E0AC0102C0440F551F6A95E2F78F
:10029000BA016095622365BB80E00895413071F436
:1002A00022B381E090E0AC0102C0440F551F6A9573
:1002B000E2F7BA01622B62BB80E0089522B381E0CD
:1002C00090E0AC0102C0440F551F6A95E2F7BA01F5
:1002D0006095622362BB80E0089581E0089581E02B
:1002E000089581E0089580E00895843008F045C0C5
:1002F000683008F044C08130B1F0813030F0823095
:1003000001F1833009F03DC02AC02BB381E090E0B9
:10031000AC0102C0440F551F6A95E2F7BA0162278B
:100320006BBB80E0089528B381E090E0AC0102C08F
:10033000440F551F6A95E2F7BA01622768BB80E057
:10034000089525B381E090E0AC0102C0440F551F31
:100350006A95E2F7BA01622765BB80E0089522B38F
:1003600081E090E0AC0102C0440F551F6A95E2F7AE
:10037000BA01622762BB80E0089581E0089581E0C0
:10038000089580E00895843008F049C0683008F08E
:1003900048C04115510509F446C08130B1F08130A3
:1003A00030F0823001F1833009F03FC02AC089B3B8
:1003B00090E09C0102C0359527956A95E2F7B90156
:1003C0006170FA01608380E0089586B390E09C013B
:1003D00002C0359527956A95E2F7B9016170FA0177
:1003E000608380E0089583B390E09C0102C035955E
:1003F00027956A95E2F7B9016170FA01608380E0A0
:10040000089580B390E09C0102C0359527956A95C8
:10041000E2F7B9016170FA01608380E0089581E03C
:10042000089581E0089581E0089580E00895843082
:1004300008F045C0683008F044C08130B1F0813028
:1004400030F0823001F1833009F03DC02AC02BB377
:1004500081E090E0AC0102C0440F551F6A95E2F7BD
:10046000BA01622B6BBB80E0089528B381E090E075
:10047000AC0102C0440F551F6A95E2F7BA01622B26
:1004800068BB80E0089525B381E090E0AC0102C034
:10049000440F551F6A95E2F7BA01622B65BB80E0F5
:1004A000089522B381E090E0AC0102C0440F551FD3
:1004B0006A95E2F7BA01622B62BB80E0089581E0A1
:1004C000089581E0089580E008958430A8F5813092
:1004D00091F0813028F08230C9F0833079F521C065
:1004E0006F3F29F48AB38FEF8ABB80E008958AB307
:1004F0001ABA80E008956F3F29F487B38FEF87BB66
:1005000080E0089587B317BA80E008956F3F29F41B
:1005100084B38FEF84BB80E0089584B314BA80E085
:1005200008956F3F29F481B38FEF81BB80E0089578
:1005300081B311BA80E0089581E0089580E00895C4
:100540008430A8F4813051F0813028F0823049F0B5
:10055000833079F409C06BBB80E0089568BB80E00C
:10056000089565BB80E0089562BB80E0089581E056
:10057000089580E00895843000F561157105F9F063
:10058000813061F0813028F0823069F08330C9F425
:100590000FC08BB3FB01808380E0089588B3FB011B
:1005A000808380E0089585B3FB01808380E0089517
:1005B00082B3FB01808380E0089581E0089581E0AB
:1005C000089580E008958430E8F4813061F081304E
:1005D00028F0823069F08330B9F40FC08BB3809576
:1005E0008BBB80E0089588B3809588BB80E0089538
:1005F00085B3809585BB80E0089582B3809582BBEA
:1006000080E0089581E0089580E008958430E8F462
:10061000813061F0813028F0823069F08330B9F4A4
:100620000FC08BB38FEF8BBB80E0089588B38FEF43
:1006300088BB80E0089585B38FEF85BB80E0089587
:1006400082B38FEF82BB80E0089581E0089580E05F
:100650000895813071F1813020F0823009F060C05E
:1006600050C0613071F0613028F0623089F0633041
:10067000E1F415C085B7816085BF85B7826085BF0D
:1006800014C085B78E7F85BF85B7826085BF0DC0DA
:1006900085B78E7F85BF85B78D7F85BF06C085B73F
:1006A000816085BF85B78D7F85BF8BB780648BBF29
:1006B0000895613071F0613028F0623089F0633064
:1006C000E1F415C085B7846085BF85B7886085BFB4
:1006D00014C085B78B7F85BF85B7886085BF0DC087
:1006E00085B78B7F85BF85B7877F85BF06C085B7F8
:1006F000846085BF85B7877F85BF8BB780688BBFD8
:100700000895662319F0613041F404C084B7806411
:1007100084BF03C084B78F7B84BF8BB780628BBFDD
:100720000895813049F0813018F0823061F408C0BA
:100730008BB78F7B8BBF08958BB78F778BBF089557
:100740008BB78F7D8BBF0895009721F09093670042
:10075000809366000895009721F09093690080933C
:1007600068000895009721F090936B0080936A00D1
:1007700008951F920F920FB60F9211242F933F935B
:100780004F935F936F937F938F939F93AF93BF9399
:10079000EF93FF93E0916600F0916700309709F0C6
:1007A0000995FF91EF91BF91AF919F918F917F91AB
:1007B0006F915F914F913F912F910F900FBE0F90CE
:1007C0001F9018951F920F920FB60F9211242F931E
:1007D0003F934F935F936F937F938F939F93AF93C9
:1007E000BF93EF93FF93E0916800F0916900309719
:1007F00009F00995FF91EF91BF91AF919F918F9172
:100800007F916F915F914F913F912F910F900FBE0C
:100810000F901F9018951F920F920FB60F921124F0
:100820002F933F934F935F936F937F938F939F93F8
:10083000AF93BF93EF93FF93E0916A00F0916B0049
:10084000309709F00995FF91EF91BF91AF919F917A
:100850008F917F916F915F914F913F912F910F9069
:100860000FBE0F901F9018958FB780688FBF0895A7
:10087000CF93C82F80FD06C080E064E040E00E9476
:10088000DF0005C080E064E041E00E94DF008C2FC3
:10089000869580FD06C080E065E040E00E94DF00B4
:1008A00005C080E065E041E00E94DF008C2F869566
:1008B000869580FD06C080E066E040E00E94DF0093
:1008C00005C080E066E041E00E94DF00C695C69565
:1008D000C695C0FD06C080E067E040E00E94DF00F2
:1008E00005C080E067E041E00E94DF00CF910895FD
:1008F000CF93C82F81E061E040E00E94DF0081E0FB
:1009000062E040E00E94DF008C2F82958F700E9491
:10091000380481E063E041E00E94DF008FE99FE05E
:100920000197F1F700C0000081E063E040E00E9421
:10093000DF008C2F0E94380481E063E041E00E94D8
:10094000DF008FE99FE00197F1F700C0000081E030
:1009500063E040E00E94DF00CF91089581E061E014
:1009600041E00E94490081E062E041E00E944900CC
:1009700081E063E041E00E94490080E064E041E002
:100980000E94490080E065E041E00E94490080E06B
:1009900066E041E00E94490080E067E041E00E949B
:1009A00049008FE795EBA1E081509040A040E1F72E
:1009B00000C0000081E061E040E00E94DF0081E0D3
:1009C00062E040E00E94DF0082E00E94380481E0A3
:1009D00063E041E00E94DF00AFE9BFE01197F1F76B
:1009E00000C0000081E063E040E00E94DF0088E298
:1009F0000E947804B0EFBA95F1F78CE00E94780479
:100A000080EF8A95F1F781E00E947804AFE3BFE1BF
:100A10001197F1F700C0000086E00E947804B0EF63
:100A2000BA95F1F70895CF93C82F81E061E041E0D6
:100A30000E94DF0081E062E040E00E94DF008C2F36
:100A400082958F700E94380481E063E041E00E944B
:100A5000DF008FE99FE00197F1F700C0000081E01F
:100A600063E040E00E94DF008C2F0E94380481E0A8
:100A700063E041E00E94DF008FE99FE00197F1F71A
:100A800000C0000081E063E040E00E94DF00CF9101
:100A90000895CF93DF93EC018881882331F021966C
:100AA0000E94130589918823D9F7DF91CF9108958A
:100AB00081E00E9478048FE39FE10197F1F700C085
:100AC000000080E80E9478040895CF93DF9300D05F
:100AD00000D0CDB7DEB790E8998390EC9A8394E983
:100AE0009B8394ED9C838150FE01E60FF11D908164
:100AF000890F0E9478048FE99FE00197F1F700C009
:100B000000000F900F900F900F90DF91CF910895FC
:100B10000F931F93CF93DF93CDB7DEB7A0970FB698
:100B2000F894DEBF0FBECDBF2DB73EB72850304082
:100B30000FB6F8943EBF0FBE2DBFEDB7FEB731968E
:100B40008E010F5F1F4FADB7BEB712961C930E9369
:100B5000119721E130E03383228320E630E03583B2
:100B60002483978386830E945C062DB73EB7285F57
:100B70003F4F0FB6F8943EBF0FBE2DBFC8010E9475
:100B80004905A0960FB6F894DEBF0FBECDBFDF912A
:100B9000CF911F910F910895CF93DF93EC01862F92
:100BA000642F0E946505CE010E948805DF91CF91D8
:100BB00008950F931F93CF93DF93CDB7DEB7A09720
:100BC0000FB6F894DEBF0FBECDBFDC01CB012DB751
:100BD0003EB72A5030400FB6F8943EBF0FBE2DBF2F
:100BE0004DB75EB74F5F5F4F8E010F5F1F4FEDB781
:100BF000FEB71283018321E130E0FA0133832283BF
:100C000023E630E03583248386839783A087B187EA
:100C10000E945C062DB73EB7265F3F4F0FB6F89493
:100C20003EBF0FBE2DBFC8010E944905A0960FB65A
:100C3000F894DEBF0FBECDBFDF91CF911F910F9112
:100C400008950E947804089580916C00882351F0E3
:100C5000815080936C000E94580580916C0090E058
:100C60000E948805089580916C00893050F48F5F50
:100C700080936C000E94580580916C0090E00E9467
:100C8000880508950E94AE040E94340480E060E06C
:100C90000E94290381E060E00E94290383E396E03B
:100CA0000E94A40384E296E00E94AB0380916C0052
:100CB00090E00E948805FFCFAEE0B0E0E2E6F6E00B
:100CC0000C9418090D891E898F89988D26E02C8334
:100CD0001A83098397FF02C080E090E801979E8302
:100CE0008D83AE01455E5F4FCE010196698D7A8D91
:100CF0000E948C064D815E8157FD0AC02F81388588
:100D0000421753070CF49A01020F131FF8011082C7
:100D10002E96E4E00C943409ADE0B0E0E2E9F6E0B0
:100D20000C940A093C017D876C875A01FC011782EB
:100D30001682838181FFC8C12E010894411C511C79
:100D4000F3019381EC85FD8593FD859193FF81915E
:100D5000FD87EC87882309F4B3C1853241F493FD04
:100D6000859193FF8191FD87EC87853229F490E08E
:100D7000B3010E948008E4CFFF24EE2410E010327B
:100D8000B0F48B3269F08C3228F4803251F0833227
:100D900071F40BC08D3239F0803349F411602CC0EE
:100DA0001260146029C0186027C0106125C017FDAB
:100DB0002EC0282F20532A3098F416FF08C08F2DFC
:100DC000880FF82EFF0CFF0CF80EF20E15C08E2DBA
:100DD000880FE82EEE0CEE0CE80EE20E10620CC04E
:100DE0008E3221F416FD6CC1106406C08C3611F4ED
:100DF000106802C0883659F4EC85FD8593FD859115
:100E000093FF8191FD87EC87882309F0B8CF982F55
:100E10009554933018F09052933038F424E030E039
:100E2000A20EB31E3FE339830FC0833631F0833700
:100E300081F0833509F05AC022C0F5018081898391
:100E400022E030E0A20EB31E21E0C22ED12C4201DE
:100E500014C092E0292E312C2A0C3B1CF501808015
:100E6000918016FF03C06F2D70E002C06FEF7FEF1F
:100E7000C4010E9475086C0151011F7715C082E002
:100E8000282E312C2A0C3B1CF5018080918016FF06
:100E900003C06F2D70E002C06FEF7FEFC4010E94AE
:100EA0006A086C011068510113FD1CC006C080E285
:100EB00090E0B3010E948008EA948E2D90E0C8165D
:100EC000D906A8F30FC0F40117FD859117FF819192
:100ED0004F0190E0B3010E948008E110EA94089469
:100EE000C108D108C114D10471F7E7C0843611F0EC
:100EF000893651F5F50117FF07C080819181A281E4
:100F0000B38124E030E008C080819181AA2797FD59
:100F1000A095BA2F22E030E0A20EB31E012F0F766B
:100F2000B7FF08C0B095A095909581959F4FAF4FA2
:100F3000BF4F0068BC01CD01A2012AE030E00E9451
:100F4000AC08D82ED4183FC0853721F41F7E2AE084
:100F500030E020C0197F8F36A9F0803720F4883523
:100F600009F0AEC00BC0803721F0883709F0A8C067
:100F700001C0106114FF09C0146007C014FF08C04D
:100F8000166006C028E030E005C020E130E002C075
:100F900020E132E0F50117FF07C060817181828195
:100FA000938144E050E006C06081718180E090E070
:100FB00042E050E0A40EB51EA2010E94AC08D82E5B
:100FC000D418012F0F7706FF09C00E7FDF1430F40D
:100FD00004FF06C002FD04C00F7E02C01D2D01C02B
:100FE0001F2D802F90E004FF0CC0FE01ED0DF11DC0
:100FF0002081203311F4097E09C002FF06C01E5F64
:1010000005C086789070009709F01F5F802E9924A4
:1010100003FD12C000FF0DC0FD2C1E1550F4FE0C88
:10102000F11A1E2D06C080E290E0B3010E948008F4
:101030001F5F1E15C0F304C01E1510F4E11A01C095
:10104000EE2484FE0FC080E390E0B3010E9480088C
:1010500082FE1FC081FE03C088E590E010C088E7D3
:1010600090E00DC0C40186789070009791F081FCEB
:1010700002C080E201C08BE207FD8DE290E0B30187
:101080000E94800806C080E390E0B3010E948008BF
:10109000FA94DF14C0F3DA94F201ED0DF11D8081B2
:1010A00090E0B3010E948008DD20A9F706C080E22D
:1010B00090E0B3010E948008EA94EE20C1F740CE90
:1010C000F3018681978102C08FEF9FEF2D96E2E1B9
:1010D0000C942609FC010590615070400110D8F76E
:1010E000809590958E0F9F1F0895FC016150704070
:1010F00001900110D8F7809590958E0F9F1F08954D
:101100000F931F93CF93DF938C01EB018B8181FFB2
:101110001BC082FF0DC02E813F818C819D812817CD
:10112000390764F4E881F9810193F983E88306C003
:10113000E885F985802F0995009731F48E819F818C
:1011400001969F838E8302C00FEF1FEFC801DF91CE
:10115000CF911F910F910895FA01AA27283051F1DC
:10116000203181F1E8946F936E7F6E5F7F4F8F4FD8
:101170009F4FAF4FB1E03ED0B4E03CD0670F781F37
:10118000891F9A1FA11D680F791F8A1F911DA11D1C
:101190006A0F711D811D911DA11D20D009F4689455
:1011A0003F912AE0269F11243019305D3193DEF6FD
:1011B000CF010895462F4770405D4193B3E00FD0B3
:1011C000C9F7F6CF462F4F70405D4A3318F0495D9E
:1011D00031FD4052419302D0A9F7EACFB4E0A69581
:1011E0009795879577956795BA95C9F700976105A3
:1011F000710508959B01AC010A2E069457954795F9
:1012000037952795BA95C9F7620F731F841F951FED
:10121000A01D08952F923F924F925F926F927F92FE
:101220008F929F92AF92BF92CF92DF92EF92FF92F6
:101230000F931F93CF93DF93CDB7DEB7CA1BDB0BA2
:101240000FB6F894DEBF0FBECDBF09942A88398847
:1012500048885F846E847D848C849B84AA84B9844E
:10126000C884DF80EE80FD800C811B81AA81B9815A
:10127000CE0FD11D0FB6F894DEBF0FBECDBFED016E
:061280000895F894FFCF71
:061286002564002566004E
:00000001FF
